:100000000C9462000C948A000C948A000C948A0070
:100010000C948A000C948A000C948A000C948A0038
:100020000C948A000C948A000C948A000C948A0028
:100030000C948A000C948A000C948A000C948A0018
:100040000C941A080C948A000C94E8070C94C207CC
:100050000C948A000C948A000C948A000C948A00F8
:100060000C9464080C948A0000000000240027000F
:100070002A0000000000250028002B0000000008D6
:10008000000201000003040700000000000000005F
:1000900000000000230026002900040404040404D6
:1000A0000404020202020202030303030303010227
:1000B00004081020408001020408102001020408F6
:1000C0001020830911241FBECFEFD8E0DEBFCDBFC3
:1000D00011E0A0E0B1E0E8EDFDE102C005900D9275
:1000E000AA36B107D9F722E0AAE6B1E001C01D9215
:1000F000A53FB207E1F710E0C2E6D0E004C02197C7
:10010000FE010E94E40EC136D107C9F70E94ED0935
:100110000C94EA0E0C940000CF92DF92EF92FF92C3
:10012000CF93DF93B091DD02A0E08111AB2F8091DE
:10013000DE0290E0880F991FAC0140575F4FC090DE
:10014000E302D090E402E090E502F090E60230E0B5
:1001500020E0FA01C591D491E881B90190E080E0F6
:10016000EB23EA130AC02F5F3F4F6C157D058E0508
:100170009F0578F36FEF7FEFCB01DF91CF91FF9079
:10018000EF90DF90CF90089508950895AF92BF92B9
:10019000CF92DF92EF92FF920F931F93CF93DF9353
:1001A0006C017B018B01040F151FEB015E01AE1882
:1001B000BF08C017D10759F06991D601ED91FC91A4
:1001C0000190F081E02DC6010995892B79F7C501D1
:1001D000DF91CF911F910F91FF90EF90DF90CF9023
:1001E000BF90AF900895FC01538D448D252F30E0D2
:1001F000842F90E0821B930B541710F0CF96089534
:1002000001970895FC01918D828D981761F0A28D60
:10021000AE0FBF2FB11D5D968C91928D9F5F9F7326
:10022000928F90E008958FEF9FEF0895FC01918DDC
:10023000828D981731F0828DE80FF11D858D90E049
:1002400008958FEF9FEF0895FC01918D228D892FE6
:1002500090E0805C9F4F821B91098F7399270895CE
:100260008DE292E00E94240121E0892B09F420E034
:10027000822F089580E090E0892B29F00E943001C0
:1002800081110C9400000895FC01A48DA80FB92FD2
:10029000B11DA35ABF4F2C91848D90E001968F73AE
:1002A0009927848FA689B7892C93A089B1898C91CD
:1002B000837080648C93938D848D981306C002881C
:1002C000F389E02D80818F7D80830895EF92FF92E6
:1002D0000F931F93CF93DF93EC0181E0888F9B8D69
:1002E0008C8D98131AC0E889F989808185FF15C023
:1002F0009FB7F894EE89FF896083E889F989808146
:100300008370806480839FBF81E090E0DF91CF9114
:100310001F910F91FF90EF900895F62E0B8D10E036
:100320000F5F1F4F0F731127E02E8C8D8E110CC0A5
:100330000FB607FCFACFE889F989808185FFF5CFF0
:10034000CE010E944401F1CFEB8DEC0FFD2FF11D8A
:10035000E35AFF4FF0829FB7F8940B8FEA89FB892D
:1003600080818062CFCFCF93DF93EC01888D88238B
:10037000B9F0AA89BB89E889F9898C9185FD03C008
:10038000808186FD0DC00FB607FCF7CF8C9185FFED
:10039000F2CF808185FFEDCFCE010E944401E9CFED
:1003A000DF91CF91089590E0FC01E458FF4F249134
:1003B000FC01E255FF4F3491FC01E656FF4FE491FA
:1003C000EE23C9F0222339F0233001F1A8F42130C3
:1003D00019F1223029F1F0E0EE0FFF1FEE58FF4F28
:1003E000A591B4918FB7F894EC91611126C0309526
:1003F0003E233C938FBF08952730A9F02830C9F0E1
:10040000243049F7809180008F7D03C08091800067
:100410008F7780938000DFCF84B58F7784BDDBCF6B
:1004200084B58F7DFBCF8091B0008F778093B00033
:10043000D2CF8091B0008F7DF9CF3E2BDACFCF9312
:10044000DF9390E0FC01E255FF4F249186569F4FC9
:10045000FC0184918823D1F090E0880F991FFC0162
:10046000E859FF4FA591B491FC01EE58FF4FC5919B
:10047000D491623071F49FB7F8943C91822F8095AB
:1004800083238C93E8812E2B28839FBFDF91CF910C
:1004900008958FB7F894EC912E2B2C938FBFF6CF45
:1004A0003FB7F89480911D0290911E02A0911F0207
:1004B000B091200226B5A89B05C02F3F19F00196E8
:1004C000A11DB11D3FBFBA2FA92F982F8827BC01AE
:1004D000CD01620F711D811D911D42E0660F771FD6
:1004E000881F991F4A95D1F708958F929F92AF92D6
:1004F000BF92CF92DF92EF92FF924B015C010E947C
:1005000050026B017C010E9450026C197D098E091A
:100510009F09683E734081059105A8F321E0821A86
:100520009108A108B10888EEC80E83E0D81EE11C2E
:10053000F11C81149104A104B10429F7FF90EF90FC
:10054000DF90CF90BF90AF909F908F900895CF9203
:10055000DF92EF92FF920F931F93CF93DF93CDB76C
:10056000DEB7C054D1400FB6F894DEBF0FBECDBF8A
:100570002FB7F8948091290290912A02A0912B0222
:10058000B0912C022FBF4091DF025091E0026091A8
:10059000E1027091E2028C019D01041B150B260BF8
:1005A000370BB901A801403D57406105710590F432
:1005B0008091E702C05CDE4F0FB6F894DEBF0FBE3D
:1005C000CDBFDF91CF911F910F91FF90EF90DF9002
:1005D000CF9008958093DF029093E002A093E10210
:1005E000B093E2021092DA021092D9021092D8026D
:1005F0001092D7021092D60262E08091DB020E9434
:100600001F0261E070E080E090E00E94750261E00E
:100610008091DB020E941F0260E08091DB020E9459
:10062000D3018091DC028551823020F58BE291E18B
:100630000197F1F762E08091DB020E941F02809136
:10064000E80290E08230910538F0880F991F880FFA
:10065000991F05970197F1F7F89480E00E948C00AC
:100660006F3F7F4F8F4F9F4F61F41092E702789456
:1006700080E0A0CF64E170E080E090E00E9475022D
:10068000D9CF81E00E948C006F3F7F4F8F4F9F4FEB
:1006900061F38E010F5F1F4F6E018FEBC81A8EEF53
:1006A000D80A780180E00E948C00F7016083718392
:1006B0008283938381E00E948C00F70164837583B9
:1006C00086839783F8E0EF0EF11CEC14FD0451F7DC
:1006D000789430E020E0F801C080D180E280F3809F
:1006E0004481558166817781FFEFCF16DF06EF06E3
:1006F000FF0631F04F3F8FEF58076807780719F46E
:100700001092E702B5CFF90183E0F595E7958A9558
:10071000E1F7EA52FD4F8081880FC416D506E60640
:10072000F70610F180832F5F3F4F085F1F4F28327D
:10073000310589F64091DA022091D6028091D702E4
:10074000280F3327331F8091D802280F311D809145
:10075000D902820F932F911D99274817190681F608
:1007600081E08093E70226CF8160DCCF089520915D
:10077000AB01260F3327331F21323105ECF42091D2
:10078000F401FC0190E080E0243069F082E00895FB
:10079000A091AB012191AC0145575E4FA40FB52F3D
:1007A000B11D2C930196861798F38091AB01680FC9
:1007B0006093AB0180E0089581E008951092F40108
:1007C00081E08093F3011092CE0161E082E10E940A
:1007D000D30161E083E10E94D301E9EBF0E0808185
:1007E0008E7F808380818D7F808388E48093B800B2
:1007F00085E48093BC000895CF93DF9391E09093BC
:100800008A018823B9F0C091B800D091BA008091D4
:10081000BC008A7B8093BC0060E082E10E94D3012F
:1008200060E083E10E94D3010E94DE03D093BA000E
:10083000C093B800DF91CF9108950895E091280208
:1008400080912702E81730F4F0E0E659FE4F8081EE
:1008500090E008958FEF9FEF089590912802809186
:1008600027022FEF3FEF981748F4E92FF0E0E65901
:10087000FE4F208130E09F5F90932802C9010895C8
:100880008091270290912802891B990B0895CF929D
:10089000DF92EF92FF920F931F93CF93DF937C0130
:1008A000CB018A012091FA01222389F0EB016B012F
:1008B000C40ED51ECC15DD0569F06991D701ED9107
:1008C000FC910190F081E02DC7010995F3CF642FD1
:1008D0000E94B703C801DF91CF911F910F91FF9044
:1008E000EF90DF90CF900895CF93DF931F92CDB715
:1008F000DEB769832091FA012223F9F020912502C5
:10090000203258F021E030E0FC013383228390E074
:1009100080E00F90DF91CF91089580912602E82F1B
:10092000F0E0E550FE4F998190838F5F809326021F
:100930008093250281E090E0ECCF61E0CE0101964A
:100940000E94B703F7CFCF92DF92EF92FF920F93FF
:100950001F93CF93DF93FC01C48121E02093FA0120
:10096000C0931B0210922602109225028385682BE9
:100970008AEC92E00E947404D0912502D13208F0F2
:1009800092C00E9450026B017C018091F4018111A0
:1009900065C082E08093F40181E08093F3018FEFE2
:1009A0008093F2011092F101D093F001ABEFB1E02E
:1009B000E0EDF1E080E0D81385C01092CF01809186
:1009C000CF01CC0FC82BC093CF018091CE018130D5
:1009D00009F07CC01092CE010E9450026B017C0194
:1009E0008091CF018093BB008091F6019091F70137
:1009F000A091F801B091F901892B8A2B8B2B99F0EA
:100A00000E9450020091F6011091F7012091F80127
:100A10003091F9016C197D098E099F090617170796
:100A200028073907E0F18091BC0083FDD9CF85EC20
:100A30008093BC000E9450026B017C018091F40104
:100A4000823009F445C08091F2018F3F61F18091BD
:100A5000F201803241F18091F20125C08091F601CE
:100A60009091F701A091F801B091F901892B8A2B9F
:100A70008B2B09F48ACF0E9450020091F60110914D
:100A8000F7012091F8013091F9016C197D098E0967
:100A90009F09061717072807390708F076CF8091B6
:100AA000F5010E94FC03109226021092250210927A
:100AB000FA01DF91CF911F910F91FF90EF90DF909E
:100AC000CF9008959D9191938F5F75CF85EEB0CFB4
:100AD0008091F6019091F701A091F801B091F90190
:100AE000892B8A2B8B2B09F4A9CF0E9450020091ED
:100AF000F6011091F7012091F8013091F9016C197C
:100B00007D098E099F09061717072807390708F07E
:100B100095CFC5CF90E080E008950F931F93CF93BA
:100B20008C01C62F0E94A3046C2F6460C8010E9430
:100B3000A3046C2F6B7FC8010E94A30483EC90E098
:100B40000197F1F7CF911F910F9108950F931F9384
:100B5000CF93DF938C01D62FC42F607F642B0E942C
:100B60008D0580E1D89FB00111246C2BC801DF9165
:100B7000CF911F910F910C948D05CF93DF93CDB73B
:100B8000DEB728970FB6F894DEBF0FBECDBF98E052
:100B9000E0E0F1E0DE01119601900D929A95E1F707
:100BA0009091F202961708F46FEF262F30E0220F93
:100BB000331F41E050E04C0F5D1F240F351FF9013A
:100BC0006081680F606840E089EE92E028960FB679
:100BD000F894DEBF0FBECDBFDF91CF910C94A60578
:100BE00041E00E94A60581E090E00895FB0101909C
:100BF0000020E9F73197AF01461B570BDC01ED915F
:100C0000FC910280F381E02D09948F929F92AF9224
:100C1000BF92EF92FF920F931F93CF93DF93CDB7C5
:100C2000DEB7A1970FB6F894DEBF0FBECDBF7C0133
:100C3000FA01CB0119A2223008F42AE08E010F5DDF
:100C40001F4F822E912CB12CA12CBF01A501940124
:100C50000E94C20EF901CA016A300CF5605DD8012C
:100C60006E938D01232B242B252B79F790E080E0C8
:100C7000109721F0BD01C7010E94F605A1960FB69D
:100C8000F894DEBF0FBECDBFDF91CF911F910F91C2
:100C9000FF90EF90BF90AF909F908F900895695C08
:100CA000DECFCF92DF92EF92FF92CF93DF936C0172
:100CB000990FEE08FF08F7FE23C06DE28DE292E087
:100CC0000E946601EC0144275527BA014C195D09C1
:100CD0006E097F092AE08DE292E00E940506C80FA6
:100CE000D91F68E371E08DE292E00E94F6058C0F57
:100CF0009D1FDF91CF91FF90EF90DF90CF900895EF
:100D00002AE0B701A6018DE292E00E940506EC01FF
:100D1000E8CFCF93DF93BC018DE292E00E94F6050D
:100D2000EC0168E371E08DE292E00E94F6058C0F21
:100D30009D1FDF91CF9108952F923F924F925F9226
:100D40006F927F928F929F92AF92BF92CF92DF92DB
:100D5000EF92FF921F93CF93DF93EC016A017B0127
:100D6000722EAB019601CB01B6010E94BD0E6BE362
:100D700071E0811126C046015701E894B7F82FEFC2
:100D80003FEF4FE75FE7C501B4010E94BD0E81113F
:100D90000CC02FEF3FEF4FE75FE7C501B4010E94A2
:100DA000F30C6FE371E0181664F02FEF3FEF4FE79D
:100DB0005FE4C701B6010E944B0E1816B4F463E459
:100DC00071E0CE01DF91CF911F91FF90EF90DF9006
:100DD000CF90BF90AF909F908F907F906F905F90DB
:100DE0004F903F902F900C94F6052FEF3FEF4FE779
:100DF0005FECC701B6010E94F30C87FDE0CF20E055
:100E000030E0A901C701B6010E94F30C312C212C5E
:100E100087FF0DC0E881F9810190F081E02D6DE23E
:100E2000CE0109951C01F7FAF094F7F8F09410E060
:100E300060E070E080E09FE3711641F020E030E078
:100E400040E251E40E94F80C1F5FF6CFA701960123
:100E50000E94870C2B013C010E946A0D4B015C0132
:100E60002AE0BC01A401CE010E9405067C01E20C2F
:100E7000F31C1123E1F1C501B4010E94990D9B01FE
:100E8000AC01C301B2010E94860C4B015C01E881F8
:100E9000F9810190F081E02D6EE2CE010995E80E16
:100EA000F91E115020F120E030E040E251E4C5018C
:100EB000B4010E94500E2B013C010E946A0D4B01AF
:100EC000B12CA12C2AE0B501A401CE010E94050697
:100ED000E80EF91EC501B4010E94990D9B01AC01F9
:100EE000C301B2010E94860C4B015C01DACFC7013D
:100EF000DF91CF911F91FF90EF90DF90CF90BF9047
:100F0000AF909F908F907F906F905F904F903F90A9
:100F10002F90089585ED8093BC008091F60190910B
:100F2000F701A091F801B091F9010796A11DB11D3B
:100F300023E0B695A795979587952A95D1F72091A7
:100F4000BC0024FD03C01092F40108954091F60105
:100F50005091F7016091F8017091F901452B462BF2
:100F6000472B69F30097A105B10541F025E32A95C8
:100F7000F1F700000197A109B109E1CF8091F501D6
:100F80000C94FC031F920F920FB60F9211242F9313
:100F90003F934F935F936F937F938F939F93AF9301
:100FA000BF93EF93FF938DE292E00E944401FF9183
:100FB000EF91BF91AF919F918F917F916F915F91D1
:100FC0004F913F912F910F900FBE0F901F9018954A
:100FD0001F920F920FB60F9211242F938F939F930E
:100FE000EF93FF93E0913D02F0913E028081E0910A
:100FF0004302F091440282FD1BC090818091460221
:101000008F5F8F7320914702821741F0E091460273
:10101000F0E0E35DFD4F958F80934602FF91EF91E5
:101020009F918F912F910F900FBE0F901F90189549
:101030008081F4CF1F920F920FB60F9211242F933D
:101040003F938F939F93AF93BF9380912902909189
:101050002A02A0912B02B0912C0230911C0223E0B5
:10106000230F2D3758F50196A11DB11D20931C02A9
:101070008093290290932A02A0932B02B0932C0212
:1010800080911D0290911E02A0911F02B09120023A
:101090000196A11DB11D80931D0290931E02A09385
:1010A0001F02B0932002BF91AF919F918F913F910A
:1010B0002F910F900FBE0F901F90189526E8230FC9
:1010C0000296A11DB11DD2CF1F920F920FB60F92A3
:1010D00011242F933F934F935F936F937F938F933D
:1010E0009F93AF93BF93EF93FF938091B900887F55
:1010F000803609F44AC0F0F5883209F4A7C018F523
:10110000803109F49BC0B8F4882309F4F9C0883011
:1011100009F494C0FF91EF91BF91AF919F918F918E
:101120007F916F915F914F913F912F910F900FBEE3
:101130000F901F901895883109F488C0803251F7BC
:101140008093F20114C0803409F49DC040F48033D0
:10115000B9F38833F9F68093F20185ECB0C080359D
:1011600009F485C0883509F496C0883499F60E9440
:101170008A07D0CF883909F48CC038F5883729F030
:1011800050F4883611F0803729F683E08093F4011B
:101190001092CD0157C0883809F47BC0803919F00E
:1011A000803809F0B7CF8091CD01803208F071C04E
:1011B000E091CD0181E08E0F8093CD018091BB0045
:1011C000F0E0E355FE4F80833DC0803B39F0E0F412
:1011D000803A09F479C0883A09F09CCF84E0809382
:1011E000F4011092AC011092AB01E0912302F09156
:1011F000240209958091AB0181110FC081E0809399
:10120000AB0110928B0109C0803C09F4A6CF883C49
:1012100009F4A3CF883B09F07DCFE091AC0181E0D8
:101220008E0F8093AC01F0E0E557FE4F80818093F4
:10123000BB009091AC018091AB0129C08091CF019E
:101240008093BB0085EC8093BC0064CF9091F1014A
:101250008091F001981758F5E091F10181E08E0F2F
:101260008093F101F0E0E053FE4F8081E9CFE091FF
:10127000F10181E08E0F8093F1018091BB00F0E0DD
:10128000E053FE4F80839091F1018091F001981717
:10129000C8F285E8D8CFE091F10181E08E0F80930C
:1012A000F1018091BB00F0E0E053FE4F808380911C
:1012B000F30181115CCF81E08093CE0184EA8093B9
:1012C000BC001092F40126CF85EC8093BC001092F4
:1012D000F4018091CD01803230F4E091CD01F0E055
:1012E000E355FE4F10826091CD0170E0E091210244
:1012F000F09122028DEA91E009951092CD010ACF7A
:101300001092F20134CFEDE2F2E01382128288EE05
:1013100093E0A0E0B0E084839583A683B7832CE0BC
:1013200031E03183208325EC30E03587248724ECBD
:1013300030E03787268720EC30E0318B208B21ECA2
:1013400030E0338B228B22EC30E0358B248B26EC83
:1013500030E0378B268B118E128E138E148EEAECB2
:10136000F2E01382128284839583A683B7838EE191
:1013700091E091838083E9EEF2E01382128280E3B0
:1013800091E09183808387E2848380E1808782E09B
:101390008187128688E08387A6EDB2E084E0159607
:1013A0008C9315978BE016968C931697E2EBF0E0F2
:1013B000E4911796EC931797EEE9F0E0E491189614
:1013C000EC93189740E85EE360E070E01D964D9363
:1013D0005D936D937C9350970895789484B5826063
:1013E00084BD84B5816084BD85B5826085BD85B5C9
:1013F000816085BD80916E00816080936E00109247
:1014000081008091810082608093810080918100C1
:101410008160809381008091800081608093800052
:101420008091B10084608093B1008091B0008160B0
:101430008093B00080917A00846080937A008091DC
:101440007A00826080937A0080917A008160809334
:101450007A0080917A00806880937A001092C100AF
:10146000E0913D02F0913E0282E08083E0913902FA
:10147000F0913A021082E0913B02F0913C0280E14F
:10148000808310924502E0914102F091420286E091
:101490008083E0913F02F0914002808180618083EF
:1014A000E0913F02F0914002808188608083E0916A
:1014B0003F02F0914002808180688083E0913F028A
:1014C000F091400280818F7D808361E08CE00E94FA
:1014D0001F0262E08091DB020E941F022FB7F89486
:1014E0008091290290912A02A0912B02B0912C02A6
:1014F0002FBF805D9740A109B1098093DF029093CF
:10150000E002A093E102B093E20287E38093E80255
:1015100010922802109227021092260210922502A1
:101520000E94DE0384EC90E09093240280932302D7
:1015300085EC90E090932202809321021092EE02BB
:101540008091F202823018F098E09093EE02909130
:10155000F302992339F0813029F48091EE028460FE
:101560008093EE0262E370E080E090E00E947502FA
:101570006091F40289EE92E00E94A30468EE73E0A9
:1015800080E090E00E94750260E389EE92E00E94A4
:101590008D05CBE4D6E4CE010197F1F760E389EE47
:1015A00092E00E948D052197F1F760E389EE92E0C9
:1015B0000E948D0583E592E00197F1F760E289EEE4
:1015C00092E00E948D056091EE02606240E089EE3B
:1015D00092E00E94A60584E08093EF0240E06CE078
:1015E00089EE92E00E94A60540E061E089EE92E07B
:1015F0000E94A605CBE3DFE1CE010197F1F782E07F
:101600008093F00240E066E089EE92E00E94A60539
:1016100040E062E089EE92E00E94A6052197F1F792
:1016200088E08093F40260E089EE92E00E94A304D7
:1016300000E4C0E0D0E00E94A702882341F080913E
:10164000DC028C3009F462C048F48B3001F1C12C0B
:10165000D12C90ECE92E9FE7F92E43C085518230C2
:10166000B0F71091D802612F70E0762F66276627B9
:101670007F778091D902682B90E080E00E94990DDD
:101680002DEC3CEC4CEC5DE30E94500E5BC0609195
:10169000D80270E090E080E00E94990D6B017C011F
:1016A0001091D90217FF0AC0AC019B0160E070E005
:1016B00080E89FEB0E94860C6B017C011F70612FFC
:1016C00070E090E080E00E949B0D2DEC3CEC4CEC37
:1016D0005DE30E94500EA70196010E94870C6B01EA
:1016E0007C010E94A702882351F08091DC028B309C
:1016F00030F08D3080F18551823008F4F0C0412CFB
:10170000512C80EC682E8FE7782E43C01091D802C0
:10171000612F70E090E080E00E94990D6B017C01E8
:101720006091D9026F7070E090E080E00E949B0DA4
:101730002DEC3CEC4CEC5DE30E94500EA7019601B1
:101740000E94870C6B017C0117FFCBCFF7FAF09456
:10175000F7F8F094C6CF6091D70270E090E080E097
:101760000E949B0D2DEC3CEC4CEC5DE30E94500E76
:101770002B013C016091D60270E090E080E00E9475
:101780009B0D9B01AC01C301B2010E94870C2B0190
:101790003C0100937C0080917A00806480937A0001
:1017A00080917A0086FDFCCF80917800A09079002E
:1017B000BA2CA82EC5010E94510685EFA81681E01B
:1017C000B8060CF49EC061E08CE00E94D30162E395
:1017D00070E080E090E00E94750260E08CE00E9482
:1017E000D30162E370E080E090E00E94750261E066
:1017F0008DE00E94D30162E370E080E090E00E94FF
:10180000750260E08DE00E94D30162E370E080E049
:1018100090E00E94750260E083E00E94BD0567E4ED
:1018200071E089EE92E00E94F60561E080E00E949E
:10183000BD0560E571E089EE92E00E94F60522E0C8
:10184000B701A60189EE92E00E949C0661E089E062
:101850000E94BD0563E571E089EE92E00E94F60505
:1018600061E08BE00E94BD0522E0B301A20189EE98
:1018700092E00E949C0686E591E00E94890622E0A3
:10188000B701A6018DE292E00E949C0668E371E038
:101890008DE292E00E94F6058DE591E00E948906B6
:1018A00022E0B301A2018DE292E00E949C0668E36F
:1018B00071E08DE292E00E94F60583E691E00E94DD
:1018C0008906C5010E945106209709F4B4CE0E94F2
:1018D0003001882309F4AFCE0E940000ACCE6091A5
:1018E000D6027091D70276276727762790E080E0AE
:1018F0000E94990D2DEC3CEC4CEC5DE30E94500EE7
:1019000046CF60E08CE00E94D30185CF5058BB27C2
:10191000AA270E949E0C0C94110E0E94030E38F010
:101920000E940A0E20F039F49F3F19F426F40C941B
:10193000000E0EF4E095E7FB0C94FA0DE92F0E94DF
:10194000220E58F3BA17620773078407950720F031
:1019500079F4A6F50C94440E0EF4E0950B2EBA2FF4
:10196000A02D0B01B90190010C01CA01A0011124A5
:10197000FF27591B99F0593F50F4503E68F11A1651
:10198000F040A22F232F342F4427585FF3CF4695E2
:1019900037952795A795F0405395C9F77EF41F1604
:1019A000BA0B620B730B840BBAF09150A1F0FF0FCE
:1019B000BB1F661F771F881FC2F70EC0BA0F621FBA
:1019C000731F841F48F4879577956795B795F795AA
:1019D0009E3F08F0B0CF9395880F08F09927EE0F3F
:1019E0009795879508950E94D60D08F481E0089593
:1019F0000E940C0D0C94110E0E940A0E58F00E94C9
:101A0000030E40F029F45F3F29F00C94FA0D5111B8
:101A10000C94450E0C94000E0E94220E68F399233C
:101A2000B1F3552391F3951B550BBB27AA276217DA
:101A30007307840738F09F5F5F4F220F331F441FE7
:101A4000AA1FA9F335D00E2E3AF0E0E832D091501B
:101A50005040E695001CCAF72BD0FE2F29D0660F08
:101A6000771F881FBB1F261737074807AB07B0E84B
:101A700009F0BB0B802DBF01FF2793585F4F3AF051
:101A80009E3F510578F00C94FA0D0C94450E5F3F83
:101A9000E4F3983ED4F3869577956795B795F795D7
:101AA0009F5FC9F7880F911D9695879597F90895BF
:101AB000E1E0660F771F881FBB1F6217730784075B
:101AC000BA0720F0621B730B840BBA0BEE1F88F76A
:101AD000E09508950E942A0E88F09F5798F0B92F3C
:101AE0009927B751B0F0E1F0660F771F881F991F53
:101AF0001AF0BA95C9F714C0B13091F00E94440EA3
:101B0000B1E008950C94440E672F782F8827B85FB2
:101B100039F0B93FCCF3869577956795B395D9F7AA
:101B20003EF490958095709561957F4F8F4F9F4FB4
:101B30000895E89409C097FB3EF4909580957095C0
:101B400061957F4F8F4F9F4F9923A9F0F92F96E909
:101B5000BB279395F695879577956795B795F1117E
:101B6000F8CFFAF4BB0F11F460FF1BC06F5F7F4F1B
:101B70008F4F9F4F16C0882311F096E911C077232D
:101B800021F09EE8872F762F05C0662371F096E836
:101B9000862F70E060E02AF09A95660F771F881F05
:101BA000DAF7880F9695879597F90895990F0008A9
:101BB000550FAA0BE0E8FEEF16161706E807F9071F
:101BC000C0F012161306E407F50798F0621B730BBA
:101BD000840B950B39F40A2661F0232B242B252B3B
:101BE00021F408950A2609F4A140A6958FEF811DDE
:101BF000811D089597F99F6780E870E060E008957F
:101C00009FEF80EC089500240A9416161706180614
:101C10000906089500240A941216130614060506F0
:101C20000895092E0394000C11F4882352F0BB0F81
:101C300040F4BF2B11F460FF04C06F5F7F4F8F4FE4
:101C40009F4F089557FD9058440F551F59F05F3F1F
:101C500071F04795880F97FB991F61F09F3F79F0CE
:101C600087950895121613061406551FF2CF469550
:101C7000F1DF08C0161617061806991FF1CF8695D2
:101C80007105610508940895E894BB2766277727B6
:101C9000CB0197F908950E94D60D08F48FEF0895AF
:101CA0000E94630E0C94110E0E94030E38F00E94E5
:101CB0000A0E20F0952311F00C94FA0D0C94000EEE
:101CC00011240C94450E0E94220E70F3959FC1F3CF
:101CD000950F50E0551F629FF001729FBB27F00DDA
:101CE000B11D639FAA27F00DB11DAA1F649F66272F
:101CF000B00DA11D661F829F2227B00DA11D621F7E
:101D0000739FB00DA11D621F839FA00D611D221F37
:101D1000749F3327A00D611D231F849F600D211D1B
:101D2000822F762F6A2F11249F5750409AF0F1F09E
:101D300088234AF0EE0FFF1FBB1F661F771F881F07
:101D400091505040A9F79E3F510580F00C94FA0D38
:101D50000C94450E5F3FE4F3983ED4F38695779557
:101D60006795B795F795E7959F5FC1F7FE2B880FAD
:101D7000911D9695879597F908950E94D60D880B29
:101D8000990B0895A1E21A2EAA1BBB1BFD010DC0E1
:101D9000AA1FBB1FEE1FFF1FA217B307E407F5071B
:101DA00020F0A21BB30BE40BF50B661F771F881FF7
:101DB000991F1A9469F760957095809590959B018D
:101DC000AC01BD01CF010895EE0FFF1F0590F49106
:081DD000E02D0994F894FFCF07
:101DD8000000400014005400000000006601C60026
:101DE800F300B3012401020116010000000074048D
:101DF80047048A051D0440042D041E040000000049
:101E0800F005C6008A05B6030D0A006E616E00690A
:101E18006E66006F7666004E484F4D2031312000C7
:101E2800543A00483A0054454D503A200048554D20
:0A1E38003A20004741533A20000011
:00000001FF
